{
  "contractName": "Markatplace",
  "abi": [
    {
      "constant": true,
      "inputs": [],
      "name": "productIndex",
      "outputs": [
        {
          "name": "",
          "type": "uint256"
        }
      ],
      "payable": false,
      "stateMutability": "view",
      "type": "function"
    },
    {
      "inputs": [],
      "payable": false,
      "stateMutability": "nonpayable",
      "type": "constructor"
    },
    {
      "constant": false,
      "inputs": [
        {
          "name": "_name",
          "type": "string"
        },
        {
          "name": "_imageLink",
          "type": "string"
        },
        {
          "name": "_descLink",
          "type": "string"
        },
        {
          "name": "_price",
          "type": "uint256"
        },
        {
          "name": "_sellerAddr",
          "type": "address"
        },
        {
          "name": "_sellerContact",
          "type": "string"
        }
      ],
      "name": "addProductToStore",
      "outputs": [],
      "payable": false,
      "stateMutability": "nonpayable",
      "type": "function"
    },
    {
      "constant": true,
      "inputs": [
        {
          "name": "_productId",
          "type": "uint256"
        }
      ],
      "name": "getProduct",
      "outputs": [
        {
          "name": "",
          "type": "uint256"
        },
        {
          "name": "",
          "type": "string"
        },
        {
          "name": "",
          "type": "string"
        },
        {
          "name": "",
          "type": "string"
        },
        {
          "name": "",
          "type": "uint256"
        },
        {
          "name": "",
          "type": "uint8"
        }
      ],
      "payable": false,
      "stateMutability": "view",
      "type": "function"
    }
  ],
  "bytecode": "0x6060604052341561000f57600080fd5b60008081905550610b1d806100256000396000f300606060405260043610610057576000357c0100000000000000000000000000000000000000000000000000000000900463ffffffff1680635add8b651461005c578063b9db15b4146101aa578063c897d5a614610341575b600080fd5b341561006757600080fd5b6101a8600480803590602001908201803590602001908080601f0160208091040260200160405190810160405280939291908181526020018383808284378201915050505050509190803590602001908201803590602001908080601f0160208091040260200160405190810160405280939291908181526020018383808284378201915050505050509190803590602001908201803590602001908080601f0160208091040260200160405190810160405280939291908181526020018383808284378201915050505050509190803590602001909190803573ffffffffffffffffffffffffffffffffffffffff1690602001909190803590602001908201803590602001908080601f0160208091040260200160405190810160405280939291908181526020018383808284378201915050505050509190505061036a565b005b34156101b557600080fd5b6101cb600480803590602001909190505061058c565b604051808781526020018060200180602001806020018681526020018560018111156101f357fe5b60ff168152602001848103845289818151815260200191508051906020019080838360005b83811015610233578082015181840152602081019050610218565b50505050905090810190601f1680156102605780820380516001836020036101000a031916815260200191505b50848103835288818151815260200191508051906020019080838360005b8381101561029957808201518184015260208101905061027e565b50505050905090810190601f1680156102c65780820380516001836020036101000a031916815260200191505b50848103825287818151815260200191508051906020019080838360005b838110156102ff5780820151818401526020810190506102e4565b50505050905090810190601f16801561032c5780820380516001836020036101000a031916815260200191505b50995050505050505050505060405180910390f35b341561034c57600080fd5b61035461099f565b6040518082815260200191505060405180910390f35b6103726109a5565b60016000808282540192505081905550610100604051908101604052806000548152602001888152602001878152602001868152602001858152602001600060018111156103bc57fe5b81526020018473ffffffffffffffffffffffffffffffffffffffff16815260200183815250905080600160003373ffffffffffffffffffffffffffffffffffffffff1673ffffffffffffffffffffffffffffffffffffffff16815260200190815260200160002060008054815260200190815260200160002060008201518160000155602082015181600101908051906020019061045b929190610a24565b506040820151816002019080519060200190610478929190610a24565b506060820151816003019080519060200190610495929190610a24565b506080820151816004015560a08201518160050160006101000a81548160ff021916908360018111156104c457fe5b021790555060c08201518160050160016101000a81548173ffffffffffffffffffffffffffffffffffffffff021916908373ffffffffffffffffffffffffffffffffffffffff16021790555060e082015181600601908051906020019061052c929190610a24565b5090505033600260008054815260200190815260200160002060006101000a81548173ffffffffffffffffffffffffffffffffffffffff021916908373ffffffffffffffffffffffffffffffffffffffff16021790555050505050505050565b6000610596610aa4565b61059e610aa4565b6105a6610aa4565b6000806105b16109a5565b60016000600260008b815260200190815260200160002060009054906101000a900473ffffffffffffffffffffffffffffffffffffffff1673ffffffffffffffffffffffffffffffffffffffff1673ffffffffffffffffffffffffffffffffffffffff1681526020019081526020016000206000898152602001908152602001600020610100604051908101604052908160008201548152602001600182018054600181600116156101000203166002900480601f0160208091040260200160405190810160405280929190818152602001828054600181600116156101000203166002900480156106e45780601f106106b9576101008083540402835291602001916106e4565b820191906000526020600020905b8154815290600101906020018083116106c757829003601f168201915b50505050508152602001600282018054600181600116156101000203166002900480601f0160208091040260200160405190810160405280929190818152602001828054600181600116156101000203166002900480156107865780601f1061075b57610100808354040283529160200191610786565b820191906000526020600020905b81548152906001019060200180831161076957829003601f168201915b50505050508152602001600382018054600181600116156101000203166002900480601f0160208091040260200160405190810160405280929190818152602001828054600181600116156101000203166002900480156108285780601f106107fd57610100808354040283529160200191610828565b820191906000526020600020905b81548152906001019060200180831161080b57829003601f168201915b50505050508152602001600482015481526020016005820160009054906101000a900460ff16600181111561085957fe5b600181111561086457fe5b81526020016005820160019054906101000a900473ffffffffffffffffffffffffffffffffffffffff1673ffffffffffffffffffffffffffffffffffffffff1673ffffffffffffffffffffffffffffffffffffffff168152602001600682018054600181600116156101000203166002900480601f0160208091040260200160405190810160405280929190818152602001828054600181600116156101000203166002900480156109575780601f1061092c57610100808354040283529160200191610957565b820191906000526020600020905b81548152906001019060200180831161093a57829003601f168201915b5050505050815250509050806000015181602001518260400151836060015184608001518560a001518494508393508292509650965096509650965096505091939550919395565b60005481565b61010060405190810160405280600081526020016109c1610ab8565b81526020016109ce610ab8565b81526020016109db610ab8565b815260200160008152602001600060018111156109f457fe5b8152602001600073ffffffffffffffffffffffffffffffffffffffff168152602001610a1e610ab8565b81525090565b828054600181600116156101000203166002900490600052602060002090601f016020900481019282601f10610a6557805160ff1916838001178555610a93565b82800160010185558215610a93579182015b82811115610a92578251825591602001919060010190610a77565b5b509050610aa09190610acc565b5090565b602060405190810160405280600081525090565b602060405190810160405280600081525090565b610aee91905b80821115610aea576000816000905550600101610ad2565b5090565b905600a165627a7a72305820dcb58488c26d924a7c5facf2afe6b66c98f18d4cd6a6cf8f4543d2b65900e18c0029",
  "source": "pragma solidity ^0.4.18;\r\n\r\n\r\ncontract Markatplace {\r\n    enum Status { Unsold, Sold }\r\n\r\n    struct Seller { \r\n        string contact;\r\n        address addr;\r\n    }\r\n\r\n    uint public productIndex;\r\n    mapping (address => mapping(uint => Product)) private stores;\r\n    mapping (uint => address) private productIdInStore;\r\n\r\n    struct Product {\r\n        uint id;\r\n        string name;\r\n        string imageLink;\r\n        string descLink;\r\n        uint price;\r\n        Status status;\r\n        address sellerAddr;\r\n        string sellerContact;\r\n    }\r\n\r\n    function Markatplace() public {\r\n        productIndex = 0;\r\n    }\r\n\r\n    function addProductToStore(\r\n        string _name, \r\n        string _imageLink, \r\n        string _descLink, \r\n        uint _price, \r\n        address _sellerAddr,\r\n        string _sellerContact) public {\r\n        productIndex += 1;\r\n        Product memory product = Product(\r\n            productIndex, \r\n            _name, \r\n            _imageLink, \r\n            _descLink, \r\n            _price, \r\n            Status.Unsold, \r\n            _sellerAddr, \r\n            _sellerContact\r\n        );\r\n        stores[msg.sender][productIndex] = product;\r\n        productIdInStore[productIndex] = msg.sender;\r\n    }\r\n\r\n    function getProduct(uint _productId) public view returns (uint, string, string, string, uint, Status) {\r\n        Product memory product = stores[productIdInStore[_productId]][_productId];\r\n        return (product.id, product.name, product.imageLink, product.descLink, product.price, product.status);\r\n    }\r\n}",
  "sourcePath": "E:\\Work\\marketplace_dapp\\contracts\\Marketplace.sol",
  "compiler": {
    "name": "solc",
    "version": "0.4.19+commit.c4cbbb05.Emscripten.clang"
  },
  "schemaVersion": "1.0.1",
  "updatedAt": "2018-03-06T22:03:23.343Z"
}