{
  "contractName": "Marketplace",
  "abi": [
    {
      "constant": true,
      "inputs": [],
      "name": "productIndex",
      "outputs": [
        {
          "name": "",
          "type": "uint256"
        }
      ],
      "payable": false,
      "stateMutability": "view",
      "type": "function"
    },
    {
      "inputs": [],
      "payable": false,
      "stateMutability": "nonpayable",
      "type": "constructor"
    },
    {
      "constant": false,
      "inputs": [
        {
          "name": "_name",
          "type": "string"
        },
        {
          "name": "_category",
          "type": "string"
        },
        {
          "name": "_imageLink",
          "type": "string"
        },
        {
          "name": "_descLink",
          "type": "string"
        },
        {
          "name": "_price",
          "type": "uint256"
        },
        {
          "name": "_sellerAddr",
          "type": "address"
        },
        {
          "name": "_sellerContact",
          "type": "string"
        },
        {
          "name": "_productCondition",
          "type": "uint256"
        }
      ],
      "name": "addProductToStore",
      "outputs": [],
      "payable": false,
      "stateMutability": "nonpayable",
      "type": "function"
    },
    {
      "constant": true,
      "inputs": [
        {
          "name": "_productId",
          "type": "uint256"
        }
      ],
      "name": "getProduct",
      "outputs": [
        {
          "name": "",
          "type": "uint256"
        },
        {
          "name": "",
          "type": "string"
        },
        {
          "name": "",
          "type": "string"
        },
        {
          "name": "",
          "type": "string"
        },
        {
          "name": "",
          "type": "string"
        },
        {
          "name": "",
          "type": "uint256"
        },
        {
          "name": "",
          "type": "uint8"
        },
        {
          "name": "",
          "type": "uint8"
        }
      ],
      "payable": false,
      "stateMutability": "view",
      "type": "function"
    }
  ],
  "bytecode": "0x6060604052341561000f57600080fd5b60008081905550610d62806100256000396000f300606060405260043610610057576000357c0100000000000000000000000000000000000000000000000000000000900463ffffffff168063b9db15b41461005c578063c897d5a614610274578063facb43f81461029d575b600080fd5b341561006757600080fd5b61007d6004808035906020019091905050610437565b60405180898152602001806020018060200180602001806020018881526020018760018111156100a957fe5b60ff1681526020018660018111156100bd57fe5b60ff16815260200185810385528c818151815260200191508051906020019080838360005b838110156100fd5780820151818401526020810190506100e2565b50505050905090810190601f16801561012a5780820380516001836020036101000a031916815260200191505b5085810384528b818151815260200191508051906020019080838360005b83811015610163578082015181840152602081019050610148565b50505050905090810190601f1680156101905780820380516001836020036101000a031916815260200191505b5085810383528a818151815260200191508051906020019080838360005b838110156101c95780820151818401526020810190506101ae565b50505050905090810190601f1680156101f65780820380516001836020036101000a031916815260200191505b50858103825289818151815260200191508051906020019080838360005b8381101561022f578082015181840152602081019050610214565b50505050905090810190601f16801561025c5780820380516001836020036101000a031916815260200191505b509c5050505050505050505050505060405180910390f35b341561027f57600080fd5b610287610937565b6040518082815260200191505060405180910390f35b34156102a857600080fd5b610435600480803590602001908201803590602001908080601f0160208091040260200160405190810160405280939291908181526020018383808284378201915050505050509190803590602001908201803590602001908080601f0160208091040260200160405190810160405280939291908181526020018383808284378201915050505050509190803590602001908201803590602001908080601f0160208091040260200160405190810160405280939291908181526020018383808284378201915050505050509190803590602001908201803590602001908080601f0160208091040260200160405190810160405280939291908181526020018383808284378201915050505050509190803590602001909190803573ffffffffffffffffffffffffffffffffffffffff1690602001909190803590602001908201803590602001908080601f0160208091040260200160405190810160405280939291908181526020018383808284378201915050505050509190803590602001909190505061093d565b005b6000610441610bcb565b610449610bcb565b610451610bcb565b610459610bcb565b6000806000610466610bdf565b60016000600260008d815260200190815260200160002060009054906101000a900473ffffffffffffffffffffffffffffffffffffffff1673ffffffffffffffffffffffffffffffffffffffff1673ffffffffffffffffffffffffffffffffffffffff16815260200190815260200160002060008b8152602001908152602001600020610140604051908101604052908160008201548152602001600182018054600181600116156101000203166002900480601f0160208091040260200160405190810160405280929190818152602001828054600181600116156101000203166002900480156105995780601f1061056e57610100808354040283529160200191610599565b820191906000526020600020905b81548152906001019060200180831161057c57829003601f168201915b50505050508152602001600282018054600181600116156101000203166002900480601f01602080910402602001604051908101604052809291908181526020018280546001816001161561010002031660029004801561063b5780601f106106105761010080835404028352916020019161063b565b820191906000526020600020905b81548152906001019060200180831161061e57829003601f168201915b50505050508152602001600382018054600181600116156101000203166002900480601f0160208091040260200160405190810160405280929190818152602001828054600181600116156101000203166002900480156106dd5780601f106106b2576101008083540402835291602001916106dd565b820191906000526020600020905b8154815290600101906020018083116106c057829003601f168201915b50505050508152602001600482018054600181600116156101000203166002900480601f01602080910402602001604051908101604052809291908181526020018280546001816001161561010002031660029004801561077f5780601f106107545761010080835404028352916020019161077f565b820191906000526020600020905b81548152906001019060200180831161076257829003601f168201915b50505050508152602001600582015481526020016006820160009054906101000a900460ff1660018111156107b057fe5b60018111156107bb57fe5b81526020016006820160019054906101000a900473ffffffffffffffffffffffffffffffffffffffff1673ffffffffffffffffffffffffffffffffffffffff1673ffffffffffffffffffffffffffffffffffffffff168152602001600782018054600181600116156101000203166002900480601f0160208091040260200160405190810160405280929190818152602001828054600181600116156101000203166002900480156108ae5780601f10610883576101008083540402835291602001916108ae565b820191906000526020600020905b81548152906001019060200180831161089157829003601f168201915b505050505081526020016008820160009054906101000a900460ff1660018111156108d557fe5b60018111156108e057fe5b815250509050806000015181602001518260400151836060015184608001518560a001518660c001518761012001518696508595508494508393509850985098509850985098509850985050919395975091939597565b60005481565b610945610bdf565b600160008082825401925050819055506101406040519081016040528060005481526020018a81526020018981526020018881526020018781526020018681526020016000600181111561099557fe5b81526020018573ffffffffffffffffffffffffffffffffffffffff1681526020018481526020018360018111156109c857fe5b60018111156109d357fe5b815250905080600160003373ffffffffffffffffffffffffffffffffffffffff1673ffffffffffffffffffffffffffffffffffffffff168152602001908152602001600020600080548152602001908152602001600020600082015181600001556020820151816001019080519060200190610a50929190610c7d565b506040820151816002019080519060200190610a6d929190610c7d565b506060820151816003019080519060200190610a8a929190610c7d565b506080820151816004019080519060200190610aa7929190610c7d565b5060a0820151816005015560c08201518160060160006101000a81548160ff02191690836001811115610ad657fe5b021790555060e08201518160060160016101000a81548173ffffffffffffffffffffffffffffffffffffffff021916908373ffffffffffffffffffffffffffffffffffffffff160217905550610100820151816007019080519060200190610b3f929190610c7d565b506101208201518160080160006101000a81548160ff02191690836001811115610b6557fe5b021790555090505033600260008054815260200190815260200160002060006101000a81548173ffffffffffffffffffffffffffffffffffffffff021916908373ffffffffffffffffffffffffffffffffffffffff160217905550505050505050505050565b602060405190810160405280600081525090565b6101406040519081016040528060008152602001610bfb610cfd565b8152602001610c08610cfd565b8152602001610c15610cfd565b8152602001610c22610cfd565b81526020016000815260200160006001811115610c3b57fe5b8152602001600073ffffffffffffffffffffffffffffffffffffffff168152602001610c65610cfd565b815260200160006001811115610c7757fe5b81525090565b828054600181600116156101000203166002900490600052602060002090601f016020900481019282601f10610cbe57805160ff1916838001178555610cec565b82800160010185558215610cec579182015b82811115610ceb578251825591602001919060010190610cd0565b5b509050610cf99190610d11565b5090565b602060405190810160405280600081525090565b610d3391905b80821115610d2f576000816000905550600101610d17565b5090565b905600a165627a7a723058201fcc4716751601c6f8202cc6993136acdffa2c478ad359228ccb0763ad4ecfe60029",
  "source": "pragma solidity ^0.4.18;\r\n\r\n\r\ncontract Marketplace {\r\n    enum Status { Unsold, Sold }\r\n    enum ProductCondition { New, Used }\r\n\r\n    uint public productIndex;\r\n    mapping (address => mapping(uint => Product)) private stores;\r\n    mapping (uint => address) private productIdInStore;\r\n\r\n    struct Product {\r\n        uint id;\r\n        string name;\r\n        string category;\r\n        string imageLink;\r\n        string descLink;\r\n        uint price;\r\n        Status status;\r\n        address sellerAddr;\r\n        string sellerContact;\r\n        ProductCondition condition;\r\n    }\r\n\r\n    function Marketplace() public {\r\n        productIndex = 0;\r\n    }\r\n\r\n    function addProductToStore(\r\n        string _name, \r\n        string _category, \r\n        string _imageLink, \r\n        string _descLink, \r\n        uint _price, \r\n        address _sellerAddr,\r\n        string _sellerContact,\r\n        uint _productCondition) public {\r\n        productIndex += 1;\r\n        Product memory product = Product(\r\n            productIndex, \r\n            _name, \r\n            _category,\r\n            _imageLink, \r\n            _descLink, \r\n            _price, \r\n            Status.Unsold, \r\n            _sellerAddr, \r\n            _sellerContact,\r\n            ProductCondition(_productCondition)\r\n        );\r\n        stores[msg.sender][productIndex] = product;\r\n        productIdInStore[productIndex] = msg.sender;\r\n    }\r\n\r\n    function getProduct(uint _productId) public view returns (uint, string, string, string, string, uint, Status, ProductCondition) {\r\n        Product memory product = stores[productIdInStore[_productId]][_productId];\r\n        return (product.id, product.name, product.category, product.imageLink, product.descLink, product.price, product.status, product.condition);\r\n    }\r\n}",
  "sourcePath": "E:\\Work\\marketplace_dapp\\contracts\\Marketplace.sol",
  "compiler": {
    "name": "solc",
    "version": "0.4.19+commit.c4cbbb05.Emscripten.clang"
  },
  "schemaVersion": "1.0.1",
  "updatedAt": "2018-03-06T22:30:25.665Z"
}