{
  "contractName": "Marketplace",
  "abi": [
    {
      "constant": true,
      "inputs": [],
      "name": "productIndex",
      "outputs": [
        {
          "name": "",
          "type": "uint256"
        }
      ],
      "payable": false,
      "stateMutability": "view",
      "type": "function"
    },
    {
      "inputs": [],
      "payable": false,
      "stateMutability": "nonpayable",
      "type": "constructor"
    },
    {
      "constant": false,
      "inputs": [
        {
          "name": "_name",
          "type": "string"
        },
        {
          "name": "_category",
          "type": "string"
        },
        {
          "name": "_imageLink",
          "type": "string"
        },
        {
          "name": "_descLink",
          "type": "string"
        },
        {
          "name": "_price",
          "type": "uint256"
        },
        {
          "name": "_sellerAddr",
          "type": "address"
        },
        {
          "name": "_sellerContact",
          "type": "string"
        }
      ],
      "name": "addProductToStore",
      "outputs": [],
      "payable": false,
      "stateMutability": "nonpayable",
      "type": "function"
    },
    {
      "constant": true,
      "inputs": [
        {
          "name": "_productId",
          "type": "uint256"
        }
      ],
      "name": "getProduct",
      "outputs": [
        {
          "name": "",
          "type": "uint256"
        },
        {
          "name": "",
          "type": "string"
        },
        {
          "name": "",
          "type": "string"
        },
        {
          "name": "",
          "type": "string"
        },
        {
          "name": "",
          "type": "string"
        },
        {
          "name": "",
          "type": "uint256"
        },
        {
          "name": "",
          "type": "uint8"
        }
      ],
      "payable": false,
      "stateMutability": "view",
      "type": "function"
    }
  ],
  "bytecode": "0x6060604052341561000f57600080fd5b60008081905550610cb4806100256000396000f300606060405260043610610057576000357c0100000000000000000000000000000000000000000000000000000000900463ffffffff1680635bc7dffd1461005c578063b9db15b4146101ed578063c897d5a6146103f0575b600080fd5b341561006757600080fd5b6101eb600480803590602001908201803590602001908080601f0160208091040260200160405190810160405280939291908181526020018383808284378201915050505050509190803590602001908201803590602001908080601f0160208091040260200160405190810160405280939291908181526020018383808284378201915050505050509190803590602001908201803590602001908080601f0160208091040260200160405190810160405280939291908181526020018383808284378201915050505050509190803590602001908201803590602001908080601f0160208091040260200160405190810160405280939291908181526020018383808284378201915050505050509190803590602001909190803573ffffffffffffffffffffffffffffffffffffffff1690602001909190803590602001908201803590602001908080601f01602080910402602001604051908101604052809392919081815260200183838082843782019150505050505091905050610419565b005b34156101f857600080fd5b61020e6004808035906020019091905050610660565b604051808881526020018060200180602001806020018060200187815260200186600181111561023a57fe5b60ff16815260200185810385528b818151815260200191508051906020019080838360005b8381101561027a57808201518184015260208101905061025f565b50505050905090810190601f1680156102a75780820380516001836020036101000a031916815260200191505b5085810384528a818151815260200191508051906020019080838360005b838110156102e05780820151818401526020810190506102c5565b50505050905090810190601f16801561030d5780820380516001836020036101000a031916815260200191505b50858103835289818151815260200191508051906020019080838360005b8381101561034657808201518184015260208101905061032b565b50505050905090810190601f1680156103735780820380516001836020036101000a031916815260200191505b50858103825288818151815260200191508051906020019080838360005b838110156103ac578082015181840152602081019050610391565b50505050905090810190601f1680156103d95780820380516001836020036101000a031916815260200191505b509b50505050505050505050505060405180910390f35b34156103fb57600080fd5b610403610b29565b6040518082815260200191505060405180910390f35b610421610b2f565b600160008082825401925050819055506101206040519081016040528060005481526020018981526020018881526020018781526020018681526020018581526020016000600181111561047157fe5b81526020018473ffffffffffffffffffffffffffffffffffffffff16815260200183815250905080600160003373ffffffffffffffffffffffffffffffffffffffff1673ffffffffffffffffffffffffffffffffffffffff168152602001908152602001600020600080548152602001908152602001600020600082015181600001556020820151816001019080519060200190610510929190610bbb565b50604082015181600201908051906020019061052d929190610bbb565b50606082015181600301908051906020019061054a929190610bbb565b506080820151816004019080519060200190610567929190610bbb565b5060a0820151816005015560c08201518160060160006101000a81548160ff0219169083600181111561059657fe5b021790555060e08201518160060160016101000a81548173ffffffffffffffffffffffffffffffffffffffff021916908373ffffffffffffffffffffffffffffffffffffffff1602179055506101008201518160070190805190602001906105ff929190610bbb565b5090505033600260008054815260200190815260200160002060006101000a81548173ffffffffffffffffffffffffffffffffffffffff021916908373ffffffffffffffffffffffffffffffffffffffff1602179055505050505050505050565b600061066a610c3b565b610672610c3b565b61067a610c3b565b610682610c3b565b60008061068d610b2f565b60016000600260008c815260200190815260200160002060009054906101000a900473ffffffffffffffffffffffffffffffffffffffff1673ffffffffffffffffffffffffffffffffffffffff1673ffffffffffffffffffffffffffffffffffffffff16815260200190815260200160002060008a8152602001908152602001600020610120604051908101604052908160008201548152602001600182018054600181600116156101000203166002900480601f0160208091040260200160405190810160405280929190818152602001828054600181600116156101000203166002900480156107c05780601f10610795576101008083540402835291602001916107c0565b820191906000526020600020905b8154815290600101906020018083116107a357829003601f168201915b50505050508152602001600282018054600181600116156101000203166002900480601f0160208091040260200160405190810160405280929190818152602001828054600181600116156101000203166002900480156108625780601f1061083757610100808354040283529160200191610862565b820191906000526020600020905b81548152906001019060200180831161084557829003601f168201915b50505050508152602001600382018054600181600116156101000203166002900480601f0160208091040260200160405190810160405280929190818152602001828054600181600116156101000203166002900480156109045780601f106108d957610100808354040283529160200191610904565b820191906000526020600020905b8154815290600101906020018083116108e757829003601f168201915b50505050508152602001600482018054600181600116156101000203166002900480601f0160208091040260200160405190810160405280929190818152602001828054600181600116156101000203166002900480156109a65780601f1061097b576101008083540402835291602001916109a6565b820191906000526020600020905b81548152906001019060200180831161098957829003601f168201915b50505050508152602001600582015481526020016006820160009054906101000a900460ff1660018111156109d757fe5b60018111156109e257fe5b81526020016006820160019054906101000a900473ffffffffffffffffffffffffffffffffffffffff1673ffffffffffffffffffffffffffffffffffffffff1673ffffffffffffffffffffffffffffffffffffffff168152602001600782018054600181600116156101000203166002900480601f016020809104026020016040519081016040528092919081815260200182805460018160011615610100020316600290048015610ad55780601f10610aaa57610100808354040283529160200191610ad5565b820191906000526020600020905b815481529060010190602001808311610ab857829003601f168201915b5050505050815250509050806000015181602001518260400151836060015184608001518560a001518660c00151859550849450839350829250975097509750975097509750975050919395979092949650565b60005481565b6101206040519081016040528060008152602001610b4b610c4f565b8152602001610b58610c4f565b8152602001610b65610c4f565b8152602001610b72610c4f565b81526020016000815260200160006001811115610b8b57fe5b8152602001600073ffffffffffffffffffffffffffffffffffffffff168152602001610bb5610c4f565b81525090565b828054600181600116156101000203166002900490600052602060002090601f016020900481019282601f10610bfc57805160ff1916838001178555610c2a565b82800160010185558215610c2a579182015b82811115610c29578251825591602001919060010190610c0e565b5b509050610c379190610c63565b5090565b602060405190810160405280600081525090565b602060405190810160405280600081525090565b610c8591905b80821115610c81576000816000905550600101610c69565b5090565b905600a165627a7a72305820877c6bce571cf18fdf3004c38f903b450b3361ceb3c5d0b2b03abe0fd01918330029",
  "source": "pragma solidity ^0.4.18;\r\n\r\n\r\ncontract Marketplace {\r\n    enum Status { Unsold, Sold }\r\n\r\n    struct Seller { \r\n        string contact;\r\n        address addr;\r\n    }\r\n\r\n    uint public productIndex;\r\n    mapping (address => mapping(uint => Product)) private stores;\r\n    mapping (uint => address) private productIdInStore;\r\n\r\n    struct Product {\r\n        uint id;\r\n        string name;\r\n        string category;\r\n        string imageLink;\r\n        string descLink;\r\n        uint price;\r\n        Status status;\r\n        address sellerAddr;\r\n        string sellerContact;\r\n    }\r\n\r\n    function Marketplace() public {\r\n        productIndex = 0;\r\n    }\r\n\r\n    function addProductToStore(\r\n        string _name, \r\n        string _category, \r\n        string _imageLink, \r\n        string _descLink, \r\n        uint _price, \r\n        address _sellerAddr,\r\n        string _sellerContact) public {\r\n        productIndex += 1;\r\n        Product memory product = Product(\r\n            productIndex, \r\n            _name, \r\n            _category,\r\n            _imageLink, \r\n            _descLink, \r\n            _price, \r\n            Status.Unsold, \r\n            _sellerAddr, \r\n            _sellerContact\r\n        );\r\n        stores[msg.sender][productIndex] = product;\r\n        productIdInStore[productIndex] = msg.sender;\r\n    }\r\n\r\n    function getProduct(uint _productId) public view returns (uint, string, string, string, string, uint, Status) {\r\n        Product memory product = stores[productIdInStore[_productId]][_productId];\r\n        return (product.id, product.name, product.category, product.imageLink, product.descLink, product.price, product.status);\r\n    }\r\n}",
  "sourcePath": "E:\\Work\\marketplace_dapp\\contracts\\Marketplace.sol",
  "compiler": {
    "name": "solc",
    "version": "0.4.19+commit.c4cbbb05.Emscripten.clang"
  },
  "schemaVersion": "1.0.1",
  "updatedAt": "2018-03-06T22:20:24.595Z"
}